:100000000C9434000C9451000C9451000C94510049
:100010000C9451000C9451000C9451000C9451001C
:100020000C9451000C9451000C9451000C9451000C
:100030000C9451000C9451000C9451000C945100FC
:100040000C9451000C9451000C947D000C945100C0
:100050000C9451000C9451000C9451000C945100DC
:100060000C9451000C94510011241FBECFEFD8E026
:10007000DEBFCDBF11E0A0E0B1E0E8EEF2E002C0EB
:1000800005900D92A631B107D9F721E0A6E1B1E0C4
:1000900001C01D92A733B207E1F70E944B010C94F7
:1000A00072010C94000087E690E09093C500809365
:1000B000C400E1ECF0E08081886080838081806111
:1000C000808380818068808386E08093C200089569
:1000D0000895FC01828124818F5F82239381891797
:1000E00051F092819223A081B181A90FB11D6C932F
:1000F000828381E0089580E008951F920F920FB6E9
:100100000F9211242F933F934F935F936F937F939D
:100110008F939F93AF93BF93EF93FF93E0ECF0E047
:10012000808180816091C600808185E091E00E949D
:100130006900FF91EF91BF91AF919F918F917F9156
:100140006F915F914F913F912F910F900FBE0F9044
:100150001F901895682F80E091E00C946900EF9251
:10016000FF920F931F93CF93DF931F92CDB7DEB70C
:100170007C018C01060F111DE016F10661F0F701FC
:1001800061917F01641739F080E091E049830E941A
:1001900069004981F1CF0F90DF91CF911F910F91AD
:1001A000FF90EF900895FC0193818281981779F078
:1001B0008381A081B181A80FB11D8C91DB018C934B
:1001C00083818F5F94818923838381E0089580E018
:1001D0000895BC0185E091E00C94D3000F931F9328
:1001E000CF93DF9300D01F92CDB7DEB78C01CE0145
:1001F00001964B836A830E94E9004B816A818823C0
:1002000099F0909136015981F801E90FF11D508361
:1002100081E0890F8093360170E0282F30E02617A7
:10022000370724F01092360180E011C05413FCCF40
:100230009E5FF801E20FF31F492F50E04617570762
:100240001CF410829F5FF8CF1092360181E00F906E
:100250000F900F90DF91CF911F910F910895909182
:10026000C00095FFFCCF8093C6000895CF93DF9325
:100270001F92CDB7DEB7BE016F5F7F4F80E091E088
:100280000E94D300882319F089810E942F010F90CA
:10029000DF91CF910895CF93DF93CDB7DEB760970D
:1002A0000FB6F894DEBF0FBECDBF84E087B988B922
:1002B0000E945300789440E06AE08AE091E00E9456
:1002C000AF004BE360E1CE0101960E94EE0088236F
:1002D00031F04BE360E1CE0101960E94AF000E9435
:0802E0003601EFCFF894FFCFC7
:1002E800160100000F260100000F415652205265EA
:0602F8006164790A0000B8
:00000001FF
